:020000040800F2
:1000000018670020712D0008B12800085D2D000838
:100010005D2D00085D2D00085D2D0008000000002A
:10002000000000000000000000000000752E000825
:100030005D2D000800000000412E0008193D000859
:10004000C92F0008C92F0008C92F0008C92F0008B0
:10005000C92F0008C92F0008C92F0008C92F0008A0
:10006000C92F0008C92F0008C92F0008C92F000890
:10007000C92F0008C92F0008C92F0008C92F000880
:10008000C92F0008C92F0008C92F0008C92F000870
:10009000C92F0008C92F0008C92F0008C92F000860
:1000A000C92F0008C92F0008C92F0008C92F000850
:1000B000C92F0008C92F0008C92F0008C92F000840
:1000C000C92F0008C92F0008C92F0008C92F000830
:1000D000C92F0008C92F0008C92F0008C92F000820
:1000E000C92F0008C92F0008C92F0008C92F000810
:1000F000C92F0008C92F0008C92F0008C92F000800
:10010000C92F0008C92F0008C92F0008C92F0008EF
:10011000C92F0008C92F0008C92F0008C92F0008DF
:10012000C92F0008C92F0008C92F0008C92F0008CF
:10013000C92F0008C92F0008C92F0008C92F0008BF
:10014000C92F0008C92F0008C92F0008C92F0008AF
:10015000C92F0008C92F0008C92F0008C92F00089F
:10016000C92F0008C92F0008C92F0008C92F00088F
:10017000C92F0008C92F0008C92F0008C92F00087F
:08018000C92F0008C92F000877
:100188004FF0FF0C1CEAD0521EBF1CEAD15392EA72
:100198000C0F93EA0C0F6FD01A4480EA010C40024E
:1001A80018BF5FEA41211ED04FF0006343EA5010A8
:1001B80043EA5111A0FB01310CF00040B1F5000FEA
:1001C8003EBF490041EAD3715B0040EA010062F199
:1001D8007F02FD2A1DD8B3F1004F40EBC25008BF83
:1001E80020F00100704790F0000F0CF0004C08BFA1
:1001F80049024CEA502040EA51207F3AC2BFD2F16E
:10020800FF0340EAC250704740F400004FF000037B
:10021800013A5DDC12F1190FDCBF00F000407047B5
:10022800C2F10002410021FA02F1C2F1200200FAF3
:1002380002FC5FEA310040F1000053EA4C0308BFBA
:1002480020EADC70704792F0000F00F0004C02BF0B
:10025800400010F4000F013AF9D040EA0C0093F086
:10026800000F01F0004C02BF490011F4000F013BE0
:10027800F9D041EA0C018FE70CEAD15392EA0C0F4E
:1002880018BF93EA0C0F0AD030F0004C18BF31F0B9
:10029800004CD8D180EA010000F00040704790F08F
:1002A800000F17BF90F0004F084691F0000F91F033
:1002B800004F14D092EA0C0F01D142020FD193EAF9
:1002C8000C0F03D14B0218BF084608D180EA010081
:1002D80000F0004040F0FE4040F40000704740F05D
:1002E800FE4040F44000704781F0004102E000BF4A
:1002F80083F0004330B54FEA41044FEA430594EADE
:10030800050F08BF90EA020F1FBF54EA000C55EA18
:10031800020C7FEA645C7FEA655C00F0E2804FEAE9
:100328005454D4EB5555B8BF6D420CDD2C4480EACB
:10033800020281EA030382EA000083EA010180EAFB
:10034800020281EA0303362D88BF30BD11F0004F49
:100358004FEA01314FF4801C4CEA113102D040427F
:1003680061EB410113F0004F4FEA03334CEA1333BA
:1003780002D0524263EB430394EA050F00F0A780D2
:10038800A4F10104D5F1200E0DDB02FA0EFC22FACD
:1003980005F2801841F1000103FA0EF2801843FAC1
:1003A80005F359410EE0A5F120050EF1200E012AB2
:1003B80003FA0EFC28BF4CF0020C43FA05F3C018F0
:1003C80051EBE37101F0004507D54FF0000EDCF169
:1003D800000C7EEB00006EEB0101B1F5801F1BD312
:1003E800B1F5001F0CD349085FEA30004FEA3C0C16
:1003F80004F101044FEA445212F5800F80F09A800C
:10040800BCF1004F08BF5FEA500C50F1000041EB0F
:10041800045141EA050130BD5FEA4C0C404141EB13
:100428000101013C28BFB1F5801FE9D291F0000F0E
:1004380004BF01460020B1FA81F308BF2033A3F1BD
:100448000B03B3F120020CDA0C3208DD02F1140CB4
:10045800C2F10C0201FA0CF021FA02F10CE002F1EF
:100468001402D8BFC2F1200C01FA02F120FA0CFCE8
:10047800DCBF41EA0C019040E41AA2BF01EB045131
:10048800294330BD6FEA04041F3C1CDA0C340EDC2F
:1004980004F11404C4F1200220FA04F001FA02F372
:1004A80040EA030021FA04F345EA030130BDC4F130
:1004B8000C04C4F1200220FA02F001FA04F340EA25
:1004C8000300294630BD21FA04F0294630BD94F0D6
:1004D800000F83F4801306BF81F480110134013DBD
:1004E8004EE77FEA645C18BF7FEA655C29D094EA2E
:1004F800050F08BF90EA020F05D054EA000C04BFAC
:100508001946104630BD91EA030F1EBF0021002096
:1005180030BD5FEA545C05D14000494128BF41F035
:10052800004130BD14F580043CBF01F5801130BD99
:1005380001F0004545F0FE4141F470014FF0000024
:1005480030BD7FEA645C1ABF194610467FEA655CD5
:100558001CBF0B46024650EA013406BF52EA033577
:1005680091EA030F41F4002130BD00BF90F0000F65
:1005780004BF0021704730B54FF4806404F13204A1
:100588004FF000054FF0000150E700BF90F0000F5A
:1005980004BF0021704730B54FF4806404F1320481
:1005A80010F0004548BF40424FF000013EE700BF51
:1005B80042004FEAE2014FEA31014FEA02701FBFE1
:1005C80012F07F4393F07F4F81F06051704732F013
:1005D8007F4208BF704793F07F4F04BF41F400216A
:1005E800704730B54FF4607401F0004521F00041C8
:1005F8001CE700BF50EA010208BF704730B54FF052
:1006080000050AE050EA010208BF704730B511F052
:10061800004502D5404261EB41014FF4806404F18A
:1006280032045FEA915C3FF4D8AE4FF003025FEA10
:10063800DC0C18BF03325FEADC0C18BF033202EB94
:10064800DC02C2F1200300FA03FC20FA02F001FAEE
:1006580003FE40EA0E0021FA02F11444BDE600BF91
:1006680080F0004002E000BF81F0004142001FBF5F
:100678005FEA410392EA030F7FEA226C7FEA236C68
:100688006AD04FEA1262D2EB1363C1BFD21841405D
:1006980048404140B8BF5B42192B88BF704710F0F3
:1006A800004F40F4000020F07F4018BF404211F096
:1006B800004F41F4000121F07F4118BF494292EAFE
:1006C800030F3FD0A2F1010241FA03FC10EB0C002A
:1006D800C3F1200301FA03F100F0004302D54942B7
:1006E80060EB4000B0F5000F13D3B0F1807F06D364
:1006F80040084FEA310102F10102FE2A51D2B1F15C
:10070800004F40EBC25008BF20F0010040EA030050
:100718007047490040EB0000013A28BFB0F5000FD0
:10072800EDD2B0FA80FCACF1080CB2EB0C0200FA86
:100738000CF0AABF00EBC25052421843BCBFD040D5
:100748001843704792F0000F81F4000106BF80F44F
:1007580000000132013BB5E74FEA41037FEA226C12
:1007680018BF7FEA236C21D092EA030F04D092F0DD
:10077800000F08BF0846704790EA010F1CBF002011
:10078800704712F07F4F04D1400028BF40F000406E
:10079800704712F100723CBF00F50000704700F08E
:1007A800004343F0FE4040F4000070477FEA2262B5
:1007B80016BF08467FEA23630146420206BF5FEA86
:1007C800412390EA010F40F4800070474FF0000386
:1007D80004E000BF10F0004348BF40425FEA000C4D
:1007E80008BF704743F0964301464FF000001CE0F5
:1007F80050EA010208BF70474FF000030AE000BF4B
:1008080050EA010208BF704711F0004302D5404288
:1008180061EB41015FEA010C02BF844601460020FA
:1008280043F0B64308BFA3F18053A3F50003BCFA15
:100838008CF2083AA3EBC25310DB01FA02FC6344C2
:1008480000FA02FCC2F12002BCF1004F20FA02F2C9
:1008580043EB020008BF20F00100704702F12002BC
:1008680001FA02FCC2F1200250EA4C0021FA02F21D
:1008780043EB020008BF20EADC7070474FF0FF3CF2
:1008880006E000BF4FF0010C02E000BF4FF0010C82
:100898004DF804CD4FEA40024FEA41037FEA226C4B
:1008A80018BF7FEA236C11D001B052EA530C18BF6D
:1008B80090EA010F58BFB2EB030088BFC81738BFD2
:1008C8006FEAE17018BF40F0010070477FEA226CC0
:1008D80002D15FEA402C05D17FEA236CE4D15FEABC
:1008E800412CE1D05DF8040B704700BF84460846F0
:1008F8006146FFE70FB5FFF7C9FF002848BF10F1B1
:10090800000F0FBD4DF808EDFFF7F4FF0CBF0120F5
:1009180000205DF808FB00BF4DF808EDFFF7EAFF7F
:1009280034BF012000205DF808FB00BF4DF808ED3A
:10093800FFF7E0FF94BF012000205DF808FB00BF2F
:100948004DF808EDFFF7D2FF94BF012000205DF8B5
:1009580008FB00BF4DF808EDFFF7C8FF34BF0120C2
:1009680000205DF808FB00BF53B94AB9002908BF49
:1009780000281CBF4FF0FF314FF0FF3000F00CB8DB
:10098800ADF1080C6DE904CE00F008F8DDF804E0DC
:10099800DDE9022304B07047704700BF2DE9F04736
:1009A80086468C460846089E154674461946002B0E
:1009B80040F0C2808542B2FA82F245D94AB1C2F10A
:1009C800200300FA02FC2EFA03F3954043EA0C0CCC
:1009D80094404FEA154EA8B2BCFBFEF8230C0EFB60
:1009E80018CC08FB00F943EA0C43994528D9EB18C1
:1009F80008F1FF3704D2994502D9A8F102072B4420
:100A0800A3EB0903A4B2B3FBFEFC0EFB1C330CFBE7
:100A180000F044EA0344A04214D92C190CF1FF3326
:100A280004D2A04202D9ACF102032C44241A43EAAE
:100A380007401EB1D440002334607360BDE8F087DE
:100A48004746DDE76346F1E792BB431B01214FEAC6
:100A5800154EAFB2B3FBFEFC200C0EFB1C330CFB97
:100A680007F840EA0343984562D9EB180CF1FF30C8
:100A780004D2984502D9ACF102002B44A3EB080339
:100A8800A4B2B3FBFEFC0EFB1C330CFB07F744EAD5
:100A98000344A7424ED92C190CF1FF3304D2A742C4
:100AA80002D9ACF102032C44E41B43EA0040C0E73E
:100AB800C2F1200320FA03F1954090402EFA03F387
:100AC80003434FEA154EAFB2B1FBFEFC0EFB1C1000
:100AD800190C0CFB07F841EA0041884504FA02F4B6
:100AE80022D969180CF1FF3004D2884502D9ACF13B
:100AF80002002944A1EB08019BB2B1FBFEFC0EFBEE
:100B08001C110CFB07F743EA01439F420ED9EB186F
:100B18000CF1FF3104D29F4202D9ACF102012B44FF
:100B2800DB1B41EA004192E76046E3E76146F7E7ED
:100B38006046A3E76346B7E7834206D916B90021A2
:100B480008467BE7C6E900E0F9E7B3FA83F78FB90F
:100B5800834201D3724508D8BEEB020460EB03035D
:100B680001209C461EB9002168E73846FAE7C6E925
:100B7800004CF8E7C7F1200CBB4022FA0CF41C43E8
:100B88002EFA0CF120FA0CF3B84001434FEA14494D
:100B98000EFA07F5B3FBF9F81FFA84FE09FB1830C3
:100BA8000B0C08FB0EFA43EA00439A4502FA07F2D7
:100BB80040D9E31808F1FF3004D29A4502D9A8F1C8
:100BC80002002344A3EB0A0389B2B3FBF9F809FB3B
:100BD800183308FB0EFE41EA03418E452CD96118F3
:100BE80008F1FF3304D28E4502D9A8F1020321444B
:100BF80043EA0040A0FB0298A1EB0E014145CE4616
:100C0800434602D306D14D4504D2B9EB020E68EB38
:100C180004030138002EA6D0B5EB0E0261EB0301E8
:100C280001FA0CFC22FA07F34CEA0303F940C6E97F
:100C3800003198E74046C5E74346D9E7034613F82D
:100C4800012B002AFBD1181A013870470000000058
:100C58002DE9F04F89B000AF494A4A48032107F00F
:100C680016F900264FF07A55474B0FCB87E80F004F
:100C780010220021B81809F030FE03F00DF90446DF
:100C880003F00AF9001B10F1550FB84660D854302C
:100C9800A823B0FBF3F407F11009B2464FF0000B9C
:100CA80059F8041B58F8040BFFF7DEFC0146FFF760
:100CB80067FA01465046FFF7D9FC0BF1010BBBF16F
:100CC800040F8246ECD12946FFF75AFA8246FFF70D
:100CD8006FFC00220023FFF70DFB80468946504633
:100CE8002A49FFF737FE2A4A2A4BEA4694B00028D9
:100CF80008BF13466A4628499364C2E90514274980
:100D08000020C2E90A0118A1D1E90001C2E90C01D9
:100D180017A1D1E90001C2E90E0117A1D1E900012B
:100D280040F60663A2F84C301D4BC2E90889C2E9B7
:100D3800100142F8103F1348002347F6C04101F064
:100D480099FAD54600214FF47A7005F015FE8BE725
:100D580054302CBF01210021A8220023FFF704FEF4
:100D6800044698E7AFF30080000000403333D33FD8
:100D7800000000A09999E93F000000403333E33FA9
:100D880023D000089CAE000810AF0008CDCC4C3D25
:100D980052D1000813D0000853D000080000E03FEB
:100DA8000F000001000000002DE9F04F012987B075
:100DB80084468E4664D8002942D033A3D3E9002361
:100DC800CDE9042332A3D3E90023CDE9002332A3DC
:100DD800D3E9002332A7D7E90067CDE9022332A57A
:100DE800D5E900450FF2C80BDBE900AB32A1D1E928
:100DF800000133A3D3E90023CCE90A01DDE90401AA
:100E0800CCE90C01DDE900014FF000084FF00009C2
:100E1800CCE90E01DDE90201CCE90089CCE90289BF
:100E2800CCE90467CCE90645CCE908ABCCE9122348
:100E3800CCE91001CCF8D0E0002007B0BDE8F08F75
:100E480021A3D3E90023CDE9042321A3D3E9002377
:100E5800CDE9002320A3D3E9002321A7D7E9006720
:100E6800CDE9022320A5D5E900450FF2840BDBE983
:100E780000AB21A1D1E9000121A3D3E90023BBE7FD
:100E88006FF07400D9E700BF310BC0FF67263367E6
:100E980011155868874AB48EA78FF9640D2E0CDB9C
:100EA800D89E05C15D9DBBCB07D57C362A299A62A1
:100EB80017DD70305A01599139590EF7D8EC2F15B2
:100EC800A44FFABE1D48B547D182E6AD7F520E51F8
:100ED8001F6C3E2B8C68059B6BBD41FBABD9831FF8
:100EE80008C9BCF367E6096A3BA7CA8485AE67BB35
:100EF8002BF894FE72F36E3CF1361D5F3AF54FA560
:100F080079217E1319CDE05BB0B59AB0664A67487F
:100F1800032108AF06F091FA654A6448032106F0F8
:100F28008CFA02F0B9FF634A04464823624841F24A
:100F3800080100F0EBF8054660B1604A5B48012102
:100F480006F07BFA002383F31188BFF36F8F042325
:100F5800184602DF5A4A5548032106F06EFA02F095
:100F68009BFF031B13F1550F00F287805433A8220F
:100F7800B3FBF2F46DB1534A4C482346012106F005
:100F88008FFF002383F31188BFF36F8F0423184664
:100F980002DF46484C4A2346032106F081FF012020
:100FA80000F026F960B1494A4048012106F045FAA7
:100FB800002383F31188BFF36F8F0423184602DFE1
:100FC80000F042F90346424A3848032106F068FF18
:100FD800404B7B600421402307F10802781800F099
:100FE80039F9041E54DD3C4A30486D462346032136
:100FF80006F056FF88B02A46384B6B61384BAB6118
:101008004FF40073AB832105364B42F8103F41F48F
:10101800E651264807F1080301F02CF9AD460022F5
:101028000023CDE9062305230422CDE9033200235A
:10103800CDE9013300932C492C4B2D484FF4005235
:1010480005F0E8F92B492A4805F084F92A4A174897
:10105800032106F0F2F9294A1448032106F0EDF9B4
:1010680000F0D2F90346C8B9254A1048032106F012
:10107800E4F900204837BD46B0BD13F154002CBF39
:1010880001210021A8220023FFF76EFC044671E726
:101098001C4A0648012106F0D0F9C0E71A4A03485D
:1010A800022106F0FDFEE4E75ECC0008BCAE0008B5
:1010B8007BCC00080810060800000608AFCC000822
:1010C800D5CC0008E7CC000815CD00082FCD0008C6
:1010D8005ACD000812E001FF70CD000891D0000839
:1010E80088CD000803000001D82A0020590C000808
:1010F800300100209ACD0008A4CD0008BDCD00081D
:10110800DBCD00088ECD0008E8CD00082DE9F041C0
:10111800A2B00746884602A815461E4608F0CFFC2E
:10112800284A00234146384609F0FAF8044630B107
:10113800254A43422548012106F0B2FE38E0032142
:1011480002A803F0CFFA044610B1214A4342F1E75E
:10115800204920221CA808F00AF8044610B11E4AAB
:101168004342E7E71D4920221EA808F000F804467C
:1011780010B11B4A4342DDE7012120A807F0B4FF64
:101188000446A8B9482E28BF48263246294615489D
:1011980009F095FB134B0B490096202202A808F092
:1011A80085FC044658B9104A0848032106F06FFE2A
:1011B80002A808F086FC204622B0BDE8F0810B4A60
:1011C8004342B7E70809002012CE0008C4AE000861
:1011D8002ACE0008D0B1000849CE0008B0B10008F6
:1011E80064CE0008C00800207FCE00088FCE00081B
:1011F80037B5104D04462B680F4A00930321034668
:101208000E4806F057FE2B689C420AD80B480093FC
:101218000B4A2346012106F04DFE6FF00C0003B087
:1012280030BD2C600548074A2346032106F038FEE6
:101238000020F4E728090020B7CE0008F4AE000823
:10124800DDCE000802CF0008014B1868704700BFC8
:10125800280900202DE9F0418EB0144602AF1D4642
:1012680000285CD003295AD9002A58D0002B56D020
:101278006E468AB090F8018002AA3A4B53613A4B05
:101288001162C2E90638052342F8103F37480023A7
:101298004FF4245100F0EEFFB8F1840FB54609D0A1
:1012A800B8F1E00F2CD0324A30484346022106F00C
:1012B800F7FD34E00B2D32D91022002322700422CE
:1012C800C4F8013062700222C4F80530A3602272AB
:1012D800284A88B01268C4F80A2002AA264951612F
:1012E80026499161032142F8101F20484FF4C85144
:1012F80000F0C0FF0C20B5463037BD46BDE8F08190
:10130800332D0CD91E4801233A4641F2080109F051
:1013180006F938B11B4A1548012106F0B8FD4FF00F
:10132800FF30E9E712232370602363700123E37021
:10133800A0703B46043407F130051A4603CAAA4296
:1013480020606160134604F10804F6D10C4B07488D
:1013580000930D4A41F20803032106F0ABFD342047
:10136800CAE700BF2ACF0008F9CF0008DCAE0008A2
:10137800CACF000828AF00084FCF0008E6CF000802
:10138800000006087BCF000893CF00082DE9F04342
:10139800064685B088461546994609F05EFA0A223F
:1013A8000023FFF7E1FA00240746A54201D80020F0
:1013B8001FE0B3681B6853B10DF10F013046984721
:1013C80028B99DF80F3008F804300134EDE709F02A
:1013D80044FA0A220023FFF7C7FAC01B48450BD975
:1013E8000748084A00952346012106F063FD6FF07F
:1013F800730005B0BDE8F0830A2009F0E2F9D4E7EC
:10140800D4AE000894D0000870B586B03A4809F008
:10141800B0F848B9394A3A48012106F038FD6FF06A
:101428001204204606B070BD364A3548032106F03E
:101438002EFD0C22304847F230530DEB0201FFF726
:10144800A5FF10B16FF07304EBE7039B2E4A93429C
:1014580007D02E4A2A48012106F022FD6FF0150414
:10146800DFE7059D6B1EB3F5003F02D3284A2B46E4
:10147800F0E7049E274A224800953346032106F0E8
:1014880019FD25491C4842F210732A46FFF77EFFD2
:101498000028D7D118484FF47A73042202A9FFF71D
:1014A80075FF0028CED11C48294605F0C8FF029BCD
:1014B800834208D0194A00900121114806F0FAFC2D
:1014C8006FF00404ADE7164A0D48032106F0DFFC6F
:1014D800144A0B48032106F0DAFC3046FFF788FE71
:1014E800044600289DD1104A05480095334603213B
:1014F80006F0E0FC95E700BFB8AB0008B5D00008DF
:10150800D4AE0008C6D00008DEC0ADDEE9D00008C1
:10151800FBD000080AD10008CC0A002021D100081D
:101528004CD1000855D100086FD1000830B50D4DD9
:10153800C0430A44914201D1C04330BD11F8013B78
:1015480083EA000404F00F0455F8244084EA1010DC
:1015580080EA131303F00F0355F8233083EA1010C1
:10156800E8E700BFF0B100082DE9F04F91B084071B
:10157800009302F004030293C2F3C20303F10103D0
:10158800DDF86890039205460E46059340F0BA814F
:10159800041D30B1072909D86FF01B0011B0BDE850
:1015A800F08F01F00706341DC6F10806009B4FF0C6
:1015B8000008591E4FF0040A4FF0FF330193CDF88D
:1015C80010804746C34653460DB1009A22600598DD
:1015D800002800F3E8809848009A824203D397488D
:1015E8008242C0F0E080039AA4EB050E92074FEA0E
:1015F8009E0000F103810F2F00F2B180002D00F052
:10160800058107F140020DEB020C019A0CF8200C41
:101618000CF8102C049801300490E7E07A285DD883
:101628004B280ED8472859D829282DD8252852D0F4
:1016380054D820287AD02338D0F1000B4BEB000B7C
:1016480074E04C382E2849D8DFE800F07048484844
:1016580048484848484848484B48484848484848FF
:101668004859484B4B595959704B6D487048184B5D
:10167800184848827F4B48484B487F0000204FF06D
:10168800000B4FF0040A38E02A38C0B2012202FAEF
:1016980000F010EA0E0F49D110F0625C2FD110EA69
:1016A800020B43D06046013C5444B4FBFAF40AFBF5
:1016B80004F4002D61D0A3EB050CA444B4453FF617
:1016C8006BAF002868D1042B47D159F8043B23603D
:1016D800043404232AE0019A013A01924FF0000BE6
:1016E80024E011F8010C6C2834D111F8023C0020D8
:1016F8006C2B8346C5D14FF0080A5346D3E709F14E
:10170800070929F007090734F9E802AB24F00704B0
:1017180035B106982044B0423FF63EAFC4E900AB6D
:1017280008344FF0000B4FF0080A534611F8010F28
:10173800002878D0BBF1000F7FF470AF2528F5D1D1
:10174800019B013301934FF0010B4FF0040AECE7C2
:10175800584694E700208346A5E7082B02D06FF08F
:1017680015001BE709F1070929F00709F9E8022321
:10177800C4E9002308340823D8E768B9042B02D148
:1017880009F10409A4E7082BE9D109F1070929F0AF
:10179800070909F10809EDE7059A013A059259F890
:1017A800042B009210E7039A900720D5A4EB050EAE
:1017B8004FEA9E004FF0010CBEF5007FCFD20F2FED
:1017C800CDD8F5B107F140020DEB020EC0B2019A77
:1017D8000EF8200C0EF8102CBCF1000F3FF41AAFD5
:1017E80060F07F000EF8200C08F101080137C5F100
:1017F8000802043406924FF6DA7E97E74FF0000CA1
:10180800DAE7BCF1000F01D00136EFE702980236A3
:101818000028EBD10098CDE90631FFF70FFADDE992
:1018280006310644E2E7631BB3F5806F97D23DB9F2
:10183800A6F10804E018B1E6FCA90008E0DA0008FF
:10184800029A28609B082B709DF81030C2B1EB708B
:1018580085F80280B8F1000F05D008A80022C5F16C
:10186800010C97420ED1C5F101030DF120094FF08B
:10187800000A01930DF1300B574512D1601B8DE61C
:101888006B70E5E710F8013B190608D504EB0C0E60
:10189800B64503F07F033FF67FAE04F8013B013203
:1018A800DFE7B8F1000F03D099F90020002A17DB11
:1018B800029BD3B11AF80B2004F8012B0022019BDC
:1018C80098182044B0423FF667AE99F8000004F833
:1018D800010B00990392204608F0F1FF039A144483
:1018E8000AF1010A09F10109C6E799F8002055F83B
:1018F80022300093029B45F822300098FFF79EF9AA
:10190800421CDCE76FF00D0048E600BF2DE9F04F00
:1019180097B000AF90F802A0D7F880B03B62CBF345
:10192800C0030446FA62BB61894641B9457800782C
:101938000AEB800020444D4517D8A0EB0409E37852
:10194800FB61BAF1000F02D01BF0010F16D1FB6941
:1019580053BBFB6A1BB13A6A4946204698474D4635
:1019680028465C37BD46BDE8F08F461C3046FFF779
:1019780065F90130304409F10109DCE72378626830
:101988007A62FA6A9900796104EB8301002A40F0CF
:1019980000814D460E4601EB0A094FF000084E45FE
:1019A8004CD101EB0A0610E01BF0020FD1D02378CE
:1019B8009A007A6162687A62FA6A04EB8301002A03
:1019C80077D14D4601EB0A0690461BF0050F0CBF78
:1019D80002230123FB62FB6906EB430A0BF00203B7
:1019E800BB625645BCD016F8021B16F8013C54F8E9
:1019F8002390AF4B994502D3AE4B994536D3BB697B
:101A0800002B40D0786A05F01BFF00283BD0E94640
:101A18008AB06A46A84B53617B6AC2E906314FF423
:101A280000731384A54B42F8103FA54800234FF4D8
:101A3800125100F01FFC023DCD46D2E716F8013BDB
:101A4800F96254F82300FFF7F9F8D7F88430F96AF7
:101A580001304BB1D7F8883098453EBFD7F884306D
:101A680023F8180008F10108054498E7BB6923B179
:101A7800786A05F0E5FE0028C9D11BF0010F05D1F1
:101A8800FB6AED1AADE7BB6A002BAAD04846FFF700
:101A9800D5F8D7F8843053B1D7F8883098453FBF88
:101AA800D7F88420431C22F8183008F101080544AF
:101AB80097E7BAF1000F72D01BF0040672D0D04637
:101AC800002607F1480052463B61B96208F0F7FE6C
:101AD800B96A3B6901EB0A02BA62FA69F96952000C
:101AE800FA60BA6A02EB41023A610BF00202BA608C
:101AF8003A69B96A8A4257D162787A621BF0020F52
:101B080032440CBF4FEA580100211BF0010FD2B23A
:101B180040F09F801BF0040F14BF40460020BB61BB
:101B28006270A070E1703A6A7969FB6A204698474A
:101B3800051EFFF615AFBB6923707B6A6370FB69EE
:101B4800E37041463A6AFB6A84F802A007F148004C
:101B58009847B0F10008C0F2B5807B693A6AA9EBF2
:101B68000A01C91AFB68C91AD7E90A039847002865
:101B7800C0F2AA80A84408EB00054FF0000B07F15B
:101B8800380AB34567D300213A6AFB6A0846984782
:101B9800E6E656464FF0000807F1380093E7564648
:101BA800D04697E7B04695E7BA6A12F8021BBA62C0
:101BB80012F8015C3E4A54F82500904202D33D4A8F
:101BC80090421ED3BA6932B1786A7B6005F038FE5C
:101BD8007B6800288CD1BA6802BB08F1280207F19B
:101BE800300C08F10100944407F1580252FA80F0D1
:101BF80008F102080CF8101C5FFA88F800F8105C6D
:101C080076E7BA693AB1786A7B6005F019FE7B68B5
:101C180000287FF46DAF1BF0010F09D006F12802F0
:101C280007F13000711C161806F8205CCEB25FE789
:101C38001BF0040F3FF45CAF08F1280207F13000F5
:101C480008F1010102EB000808F8105C5FFA81F85E
:101C58004EE7002063E71BF80A3087F8373054F85E
:101C68002390D7F88430FBB133F81B803A6AFB6ABB
:101C7800012107F137009847002825DB0544B8F112
:101C8800000F06D14846FEF7D9FF00F101081FFAF8
:101C980088F83A6AFB6A414648469847002813DBA9
:101CA80005440BF1010B6CE7D7F88480DEE700BF31
:101CB800FCA90008E0DA00089DD100080400000132
:101CC8007CAE000845464BE6054649E6014B1860E0
:101CD800704700BF0000002080B505460E46174635
:101CE800984604F067FE034608F07AFEDFF818907D
:101CF800044649F80030424630463946A84754F869
:101D0800090001F047F800BF08000000034A5368C3
:101D180023F0020353600020704700BF002004E056
:101D2800084B1A6842F480721A601A6842F400720A
:101D38001A601A6842F480621A60034B034A1A60F8
:101D480000207047003C02407C0000200024F40082
:101D58002DE9F047DFF85880044607464FF001099F
:101D680014B93846BDE8F08794FAA4F5B5FA85F5B4
:101D780009FA05F32E0108EB05156FEA030A24EAB0
:101D880003042B7B002BEBD058F806301B694BB9AA
:101D98004644042273682846196807EA0A0700F0CF
:101DA80055FADDE7284698470028D9D1F0E700BF63
:101DB800FCAE000830B51049104889B0002208F080
:101DC8004EFD0F4D0F4900220023CDE906230024C4
:101DD8000E23CDE90334CDE901440B4B00944FF4B5
:101DE8004072284604F016FB0849284604F0B2FA67
:101DF800204609B030BD00BF191E00087806002033
:101E0800D0010020D84A0020F920000851D200084B
:101E1800014804F055BA00BF1C0100202DE9F04725
:101E280080461E480F4605F0A4FF064678B30025F5
:101E38002846BDE8F087237B6BB12368DB680BB1CC
:101E48002046984723681B69CBB963680422196840
:101E5800204600F0FBF9013610344C45EBD3B8F1BD
:101E6800000FE5D0002DE2D02846FFF771FF0546A8
:101E7800002FF7D00021642004F07EFDF2E7204611
:101E880098470028E1D00AFA06F31D43E3E7044C1B
:101E9800DFF8109005464FF0010ADEE73C09002004
:101EA800FCAE00080CAF0008014B53F82000704747
:101EB80044B2000808B5034608462BB1044A13602B
:101EC80000F06EFC002008BD6FF01500FBE700BFB6
:101ED8000400002010B5044C237813B9034804F01B
:101EE800EFF90123237010BDCC2A00201C0100202B
:101EF80010B50446084805F03CFF5CB1BFF35B8FA2
:101F0800064B53E8001F013943E80012002AF8D1B4
:101F1800BFF35B8F10BD00BF3409002038090020D3
:101F28000020064BBFF35B8F014653E8000F43E8E0
:101F38000012002AF9D1BFF35B8F704734090020E3
:101F480070B5FFF7EDFF084C084E0546B44200D3C4
:101F580070BD63685B792BB123685B6813B1294650
:101F6800204698471034F1E7FCAE00080CAF000893
:101F780010B5044C0449204605F090FD034B1C6045
:101F880010BD00BFC400002030B200082C0900209A
:101F9800084A094808B500231370084A1360084A1C
:101FA8004FF47A711360FFF785FFBDE80840FFF72B
:101FB800DFBF00BFCD2A0020957D0008340900202E
:101FC80038090020014600220148002305F087BD9A
:101FD800C4000020014805F01DBE00BFC400002059
:101FE800024B0146186805F069BE00BF2C090020A5
:101FF800014805F09EBE00BFC400002070B5254B07
:102008001878002844D0FFF7E5FF054690B1BFF3E4
:102018005B8F214B53E8001F013943E80012002A67
:10202800F8D1BFF35B8F1D4C1D4EB44226D3284612
:10203800FFF7D6FF1B4B1C4C1B68002B12DD08F06A
:102048000CFC0A220023FEF78FFCD4E90032C01AE8
:1020580040F2E93361EB0201984271F1000101D3CA
:10206800FFF76EFFD4E9003213F57A7342F10002EC
:10207800C4E90032BDE87040FFF7BABF63685B7916
:1020880023B1236829461B68204698471034CCE7BB
:1020980070BD00BFCC2A002038090020FCAE000823
:1020A8000CAF0008340900207006002070B50D4DF3
:1020B800297861B90120FFF7B1FE0B4C0B4EB442F1
:1020C80006D3FFF79BFF0028FBD101232B7070BDBF
:1020D80063685B791BB1236820469B689847103476
:1020E800EDE700BFCD2A0020FCAE00080CAF0008C9
:1020F80000212DE9F0470846FFF790FE044658B343
:102108004FF4FA784FF0000908F06AFC1B4B1C4AA0
:102118001B58136033B11B4B1B68092B02DD1A488F
:1021280004F0CEF8194FDFF860A0002544B120462E
:10213800FFF70EFE044618B94FF0FF384FF0FF398D
:10214800FFF75CFF064628B9B5B942464B465046EC
:1021580004F0DAF83546E9E74FF0FF384FF0FF3979
:10216800D2E72B689B691BB1002211462846984785
:102178001035BD42F5D3E8E7054DFAE70800000041
:1021880030090020380900201C0100200CAF00088D
:10219800FCAE000813B5184805F0EBFD174B1B788B
:1021A80073B1EFF31184102383F31288BFF36F8F99
:1021B800FFF724FF84F31188BFF36F8F02B010BDBF
:1021C8000F4B1B68002BF9D050B900220023CDE932
:1021D80000230C4842F21072002304F04DFEEDE794
:1021E8000928EBD1074808F046FB074802B0BDE8CC
:1021F800104004F065B800BF38090020CD2A00203F
:1022080030090020780600201C01002010B5064B7C
:102218001B68044698472146A060044805F0DBFC8B
:10222800BDE81040FFF7B6BF04000020C40000203E
:10223800044A054B9B1AB1EBD30F34BF52F8310057
:10224800002070477CAE0008FCAE0008084BC31A9B
:1022580010B41B1144680133237143689A714368B1
:102268001960436801225A7110BCFFF733BE00BFE2
:10227800FCAE00082DE9F04F8FB004AFC1F34A2837
:10228800B8600D4691467B600C0DB8F1000F63D025
:10229800002607F114034FF0040B4FF00A0AC7F8A1
:1022A8000C80C7E907667E620193CDF808B0CDF8C7
:1022B80000A007F11C03F96832464846FFF726FBE1
:1022C800B0F5006F03461CD36C468AB0D9F80410E9
:1022D80004AB2648C3E9050140F2FF71D9611A46EB
:1022E8004FF400711984224B42F8103F21483346BD
:1022F8004FF41251FFF7BEFFA5462C37BD46BDE887
:10230800F08FC0F30A0804F11700184420F0070002
:1023180080083B60FFF756FE68F35325044690B1EA
:102328003B68154AC7E9083600F1100107F11403A4
:10233800F961CDE900A3CDF808B0F96807F11C03ED
:102348004846FFF7E3FA68F353257B68B9682A46DD
:10235800204605F04CFDD0E704F1170020F00700F7
:102368008008FFF72FFE0446EDE700BF66D200089D
:1023780004000001A4AE0008CB7D00082DE9F04F51
:1023880087B0DDE91279DDE9105A044603919346D6
:102398009846BFB1CDF800903B4652461021002028
:1023A800CDF81490FFF7E0F8B0F5006F06460AD3B1
:1023B800184A194840F2FF73022107B0BDE8F04FF0
:1023C80005F06EBD3E4605F11700304420F00700C9
:1023D80004F007048008FFF7F5FD0BF0070BE40095
:1023E80044EA8B1444EA462444EA0554054640B1BD
:1023F8003FB1CDF800903B46524631461030FFF7CA
:10240800B3F8039943462246284607B0BDE8F04F83
:1024180005F0EDBCA5D20008A4AE0008406820B1C4
:10242800034BC01A40F3CF0070474FF0FF3070479E
:102438007CAE00080EB403B503AB014653F8042B79
:102448000448019300F0E2FD02B05DF804EB03B02C
:10245800704700BF0B7F0008CA0605D48B064CBF27
:1024680002490349FFF7E6BF704700BFDED2000804
:10247800DDD200082DE9F04F89B09B46149B0693E6
:102488009DF84CA0159B0593169B179E0493044634
:102498000D469046BAF1000F00F09D8006F4807357
:1024A800079305F08CFC06F00209024600283ED08E
:1024B80091492046FFF7BEFF0746B9F1000F08D043
:1024C80016F0440F35D18D492A462046FFF7B2FF52
:1024D800074406F0010353B1894B8A4953F82A206F
:1024E800894B2046002A08BF1A46FFF7A3FF06F4C7
:1024F8008073002B49D006F00803002B63D1B8F194
:10250800000F66D0814942462046FFF793FF0546F3
:10251800069B3D44002B6DD1049B002B73D1F30720
:1025280000F1E48031462046FFF796FFD8E00746E1
:10253800C3E7774B18680028CAD0764B4FF47A79EE
:102548001B68B5FBF3F54FF46161B5FBF0F300FBD5
:10255800135509FB05F54FF03C0CB3FBF1F201FBF9
:102568001231B5FBF0FEB1FBFCF300FB1E550CFB72
:10257800131109FB05F50091B5FBF0F56649CDE9A6
:1025880001E52046FFF756FFA2E706F00803EBB186
:10259800624B634953F82A202046FFF74BFF054654
:1025A800B8F1000F05D0594942462046FFF742FFCF
:1025B8000544BBF1000FABD05A495A462046FFF7F5
:1025C80039FF0544A4E74FF0000BE1E706F00805E2
:1025D800E6E745469CE7BBF1010F069B06D1002BB9
:1025E80064D1049B002B7BD000250CE0002BF8D095
:1025F8004D485CE04D48069B4D49224605F0EFF8F2
:10260800049B002B68D0DFF82C81DFF82C91049F05
:102618003146102F204628BF1027FFF71DFF4FF027
:10262800000B5D4545DC059B49461A782046FFF7B7
:1026380001FF4FF0010B1BF0070F03D14146204665
:10264800FFF7F8FE5F453BD9059B494613F80B2079
:102658002046FFF7EFFE0BF1010BBBF1100FEAD19B
:10266800364920464FF0000BFFF7E4FE5A46059B1B
:102678009A5CA2F120015F2928BF2E22304920460A
:10268800FFF7D8FE0BF1010BBBF1100F1DD01BF0AB
:10269800070F03D141462046FFF7CCFE5F455A4657
:1026A800E5D841462046FFF7C5FEEBE71F485546EB
:1026B800A1E741462046FFF7BDFE0BF1010BB0E74D
:1026C80020492046FFF7B6FEC5E7059B3B44059326
:1026D800049BDB1B04939AD1BAF1000F7FF41FAF60
:1026E800204609B0BDE8F04F05F0FEBB064A054993
:1026F8002046FFF79FFE15E7E5D20008E9D200085B
:1027080054B2000891D00008E0D200080ED30008A7
:102718004409002040090020F2D2000868B20008ED
:1027280012D3000818D30008417F00080B7F000867
:102738001530000825D300081DD3000827D300084A
:1027480029D3000823D3000873B542F20F738B42D4
:1027580028BF0B4605680F4A04460521684604F061
:10276800E3FB63680C495B6806460B22284605F0C4
:10277800ADFB63683246694628465B6805F0A6FBF0
:10278800636806495B681B22284605F09FFB02B078
:1027980070BD00BFF1D7000848D300082CD300084B
:1027A800074A00210123904206D8064A01B90123AD
:1027B8001360054B1860704740085B000121F2E781
:1027C80040420F004009002044090020F8B5074F97
:1027D8000D4604464618B44201D12846F8BD14F8FF
:1027E800011BBB6801485B689847F4E7A4AB000885
:1027F8002DE9F047064600AF0C46002936D0E946D9
:102808008AB0D1E90012A3686D462148A8464FF066
:10281800050AC5E90501C5E9072348F810AF1D48B1
:10282800424600234FF42151FFF724FDCD46D4E959
:1028380003126369AD461848C5F810A0C5E905013B
:10284800C5E907231348002342464FF42151FFF7F7
:1028580011FDCD46E369114A0E48012105F020FB20
:10286800A3690F4A0B48012105F01AFB012E07D175
:10287800EFF305830B4A0748103B314605F010FB80
:102888002146304603F0A6FABD46BDE8F08700BFF2
:1028980094D30008CCAE0008C3D30008F2D30008D4
:1028A80001D400082FD4000808B5034B1B689847CB
:1028B800BDE8084000F026B81000002030BFFFF740
:1028C800FDBF00BF2DE9F0410B4EDFF8308006EB6D
:1028D8000807CC1B054632460949204607F0EFFF9A
:1028E800A01942460021083C07F0F7FFC5F89040C0
:1028F80007F10800BDE8F0810000000008000000B2
:102908000CAF0008074A936893F90E10002907DBFB
:10291800526993421FBF044A536843F0805353607F
:10292800704700BF9C0A002000ED00E070B52A4CFB
:1029380006460D4629482A4905F06DFBA36ADB06C1
:1029480047D52648274905F066FB1120A36A1C07CE
:1029580004D52248244905F05EFB12201E4CA36AC8
:10296800990712D521491D4805F055FB636BA26AEA
:10297800120609D51E4A1948012105F091FA1EB11F
:10298800A36A23F08003A3621320134CA36ADE0713
:1029980004D51248174905F03EFB1420A36A9C068B
:1029A80004D50E48144905F036FB15200A4B9A6ADF
:1029B800D10658BF9A6A9A6A920642BF5A6A22F4A6
:1029C80000525A629A6A42F0FF029A6200232B7000
:1029D80070BD1020BAE700BF00ED00E0CCAE0008E3
:1029E80042D4000858D400088BD400089ED40008AC
:1029F800B6D40008CCD40008EBD4000810B5204C9D
:102A08002049214805F007FBA36A990136D51E48DD
:102A18001E4905F000FB1E20A36ADA0104D51A48F6
:102A28001B4905F0F8FA1F20154CA36A1B0304D5AF
:102A38001548184905F0EFFA2120A36A590304D56F
:102A48001148154905F0E7FA22200D4CA36A9A03AC
:102A580004D50D48114905F0DEFA2320A36ADB03EB
:102A680004D509480E4905F0D6FA2420044A936A89
:102A78006FEA03436FEA1343936210BD1D20CBE74F
:102A880000ED00E01AD50008CCAE000832D50008E9
:102A980045D500085FD500087DD50008A2D50008F7
:102AA800BCD5000870B5294C06460D46284829496A
:102AB80005F0B1FAA36AD9043CD52548264905F0A2
:102AC800AAFA1720A36A1A0504D52148234905F054
:102AD800A2FA18201D4CA36A9B0512D51C48204950
:102AE80005F099FAA36BA26A100409D51D4A184883
:102AF800012105F0D5F91EB1A36A23F40043A362AE
:102B08001920124CA36A590504D51148164905F035
:102B180082FA1A20A36ADA050ED50D48134905F082
:102B28007AFA1B20094A936A43F47F43936200238D
:102B38002B7070BD1620C5E7A36A9B04F2D5044824
:102B48000B4905F068FA1C20ECE700BF00ED00E037
:102B5800CCAE0008E7D50008FDD500088BD40008E6
:102B68000ED6000827D600083CD6000857D600081D
:102B7800EBD400082DE9F041654B8AB0D3F8048006
:102B880000AF0446C8F30805002686F31188BFF392
:102B98006F8F02F07F43B3F17F4F07D102F00C0330
:102BA800082B12D15B495C4805F035FA00263446FB
:102BB8000023FB71EB1E092B00F28980DFE803F08C
:102BC8000A7F827C87878787878510074CBF0C46DA
:102BD8000126EDE7514950484D4D05F01CFA0023F8
:102BE800FB71EB6A9A0705D54D494B4805F013FA76
:102BF800002332E0EB6A002B01DA4A49F5E7EB6A79
:102C08005B00F5D54849444805F005FA6B69A269A7
:102C180043F480736B61BFF34F8FBFF36F8F6B69A2
:102C280032F8022C23F480736B61BFF34F8FBFF32C
:102C38006F8F4DF602739A4208D0AB6ADBB273B35A
:102C4800F91D0120FFF772FE034606E02368374AA4
:102C58003148012105F024F92368FA79DAB907F136
:102C6800080504F1200C206861682A4603C208346C
:102C780064451546F7D17A6A002E44D0C2F308019C
:102C880021B96FEA52226FEA42227A6207F10801FB
:102C98001846FFF7ADFD2837BD46BDE8F081AB6AA1
:102CA80013F47F4F04D0F91D0120FFF7FBFECBE79B
:102CB800AB6AB3F5803F9BD3FFF7A0FEC4E7F91DCD
:102CC8000020BFE7F91D0020EFE719498DE7194AF1
:102CD800194B18F4F87FE8468AB018BF13466A46BD
:102CE8001649C2E905134FF400731384103D144BC1
:102CF800D56142F8103F084800234FF41151FFF7FF
:102D0800B9FAC54674E722F4FF7222F00102BCE763
:102D180000ED00E09DD60008CCAE0008C8D600083B
:102D2800DFD6000800D700080ED700082DD7000806
:102D380049D7000884D600086FD600086DD7000868
:102D480004000001024A536943F0100353617047BD
:102D580000ED00E0EFF30880EFF3098101B572465A
:102D6800FFF708FF01BD00BF102080F31188084855
:102D78004FF40061401880F30988EFF314800221B2
:102D8800084380F31488BFF36F8F00F0A5F80000A4
:102D9800D84D0020084B9B6883420BD1EFF3058385
:102DA80043B1064B5A6842F080525A605A6A22F47C
:102DB80000425A6207F016BD9C0A002000ED00E0B0
:102DC8000A4A93686FF00A01C3F898100849C3F8D3
:102DD80094004B6843F080534B60002383F31188C1
:102DE800BFF36F8F9368D3F8980070479C0A002050
:102DF80000ED00E0EFF31183102383F31288BFF393
:102E08006F8F0A4A53699360094A4FF00061516015
:102E1800084AD3F8901011600021D3F89420C3F821
:102E2800941082F31188BFF36F8F70479C0A0020BB
:102E380000ED00E06C0900200B498A684FF0300073
:102E48001044EFF3098C80E8F01F74467046FFF7D2
:102E5800D1FFA64604498A6802F1300090E8F01FC5
:102E68008CF30988704700009C0A00201EF0040FAC
:102E78000CBFEFF30880EFF30980816911F8021C99
:102E88000229FFD001B505F0C2F801BD40B2002803
:102E980007DB044A4109012300F01F00834042F880
:102EA8002130704700E100E040B20028A8BF00F1DF
:102EB800604001F10101B8BF064B4FEA0111ACBFF8
:102EC80000F5614000F00F00C9B2B4BF195480F892
:102ED8000013704714ED00E00F4A08B50F4B22F0BD
:102EE8007F029A60BFF34F8FBFF36F8FD3F88820AC
:102EF80022F47002C3F88820EFF3148323F004034C
:102F080083F31488BFF36F8F03F050F803F0DEFDEE
:102F180000F04AF803F098F80000000800ED00E01F
:102F280042F8203C009B42F81C3C0A49019B42F8AD
:102F3800183C029B42F8143C21F001014FF08073C9
:102F480042F8043C42F8081C0023203A0265C0F805
:102F580094307047E11C000800B50C4B98600C4B8E
:102F68000E46D0F89010196015462C4686F309884D
:102F78004FF00000074B984720464FF000014FF0F4
:102F880000024FF00003044C204700BF9C0A0020B9
:102F98006C0900202F800008E11C0008014B10225A
:102FA8001A61704700ED00E0044800231021C218A0
:102FB8000133522B82F80013F9D1704700E100E089
:102FC80008B5EFF30583064A103B02EBC30152F83C
:102FD800330049688847BDE80840FFF793BC00BF45
:102FE800E0AB000808B5024B1B689847002008BDF5
:102FF80070090020034B044A1860937843F00203D9
:10300800937070477009002014000020F0B587B055
:1030180007460E4614460021102268461D4607F052
:103028005CFC02238DF802302A46054B01932146A9
:103038006846CDE9047603F0A3FF07B0F0BD00BFF2
:103048005780000808B50649064821F00701C1F174
:10305800005202F5003204F085FB002008BD00BFD5
:103068001FE700207409002003484FF0FF324FF09B
:10307800FF3303F071B800BF24000020014803F0BB
:10308800E3B800BF2400002038B50546FFF7ECFF81
:1030980008482A46082104F0FDFA044628B925B153
:1030A80007F09EFC044B0C221A50FFF7E7FF20465E
:1030B80038BD00BF740900200C00000010B504469C
:1030C800FFF7D2FF2146034804F0ACFABDE81040F0
:1030D800FFF7D4BF7409002070B5A0FB01543CB9B8
:1030E8002846FFF7D1FF064640B90026304670BD96
:1030F80007F076FC044B0C221A50F6E72A462146C4
:1031080007F0EBFBF2E700BF0C0000002DE9F041EF
:103118000F4E104F054600244FF001082B7853FA44
:1031280084F01F280DDC726908FA00F333EA020202
:1031380007D1736157F830301BB107EBC0025168F3
:1031480098476A780134E3B29A42E7D2BDE8F08141
:10315800003C014080090020044B1844002301333F
:10316800994200F8012BFADC704700BF9400002058
:1031780010B4064B064902460C68185601239340C2
:1031880023430B6010BCFFF781BE00BF94000020F2
:10319800003C01401F2806DC034901220B688240DD
:1031A80023EA02030B607047003C014003292AD838
:1031B800DFE801F0020E141F134B012299688240C8
:1031C80021EA02019960D96821EA0202DA607047AF
:1031D8000D4B0122996882401143F3E70A4B012203
:1031E800D96882401143D960996821EA02029A603D
:1031F8007047012303FA00F0034B9A6802439A6070
:10320800DA681043D8607047003C014030B50A4B7B
:1032180053F830408C4204D103EBC0056D689542E9
:1032280005D034B943F8301003EBC0035A600020CE
:1032380030BD6FF00F00FBE780090020034B002230
:1032480043F8302003EBC0035A6070478009002020
:1032580010B51D4B18680B68302B14460BD00DD8D1
:103268005A1E042A11D8023B032B04D8DFE803F0C6
:103278000228161E00202060002010BD402B0BD015
:1032880006D8342BF7D0382BF5D06FF08500F4E74B
:10329800442B09D0A82BF7E78008ECE700F0A4F846
:1032A8004FF4A873C00858434008E4E700F09CF8BE
:1032B8004FF4A873C00858430723B0FBF3F0DAE7CC
:1032C8004FF4FA40D7E700BF7C000020F8B5424F22
:1032D800424C00F09FF8384604F081FF00F0F0FD02
:1032E800A3683F4AC3F303131578D35C47FA05F57F
:1032F80020FA03F6AE4202D2284600F00FFE2368F9
:1033080023F480232360236843F480332360334B02
:103318001A689203FCD55A6F42F001025A675A6F35
:103328009407FCD59A6802F00C02082A17D11A688B
:10333800900707D41A6842F001021A60274A1368F6
:103348009907FCD5254B9A6822F003029A609A687F
:1033580012F00C0FFBD19A6822F0F0029A601F4C11
:10336800236823F080732360636823F44033636029
:10337800636823F0706343F0E063636000F038F83B
:10338800236843F08073236023689B01FCD5A368FE
:1033980023F0F003A360A36823F0030343F00203C0
:1033A800A3600E4CA36803F00C03082BFAD1AE42BD
:1033B80002D3284600F0B2FD0A4B1F60A36823F42D
:1033C800E05343F4A053A360A36823F4604343F499
:1033D8000043A3600020F8BD007A030A00380240C9
:1033E800C1D900087C0000200048704700127A000C
:1033F800054B06495A681140054A0A435A605A68FB
:1034080022F440325A607047003802400080BFFF03
:1034180008544000064B1A6C42F080521A641B6C28
:1034280082B003F080530193019B02B0704700BF44
:103438000038024008B5074807F09BF838B106483D
:10344800FFF7D8FD0448FEF741FC002008BD6FF0E7
:103458001200FBE7A4AB0008653400080A2838B559
:10346800074D044604D1AB680D215B682846984790
:10347800AB6803485B68E1B29847204638BD00BF97
:10348800A4AB000800487047E0B2000807B503463F
:10349800054A00910548012104F00CFD6FF0150064
:1034A80003B05DF804FB00BFB9D700088CAE000874
:1034B80070B5044607F0D1F90A220023FDF754FA43
:1034C80023691B68DA6810F5FA5641F1000512F015
:1034D800F20F06D0DA6802F0F202DA606FF0040048
:1034E80070BD23691B68D86810F48030F8D007F0E5
:1034F800B4F90A220023FDF737FA864275EB010179
:10350800EFDA044A04484FF4FA53012104F0C8FCE6
:10351800E4E700BFE3D700088CAE0008F8B504461E
:10352800006916460D4604F090FE23691B681A6967
:10353800002A1EDB32462946204604F0C8FE2369CD
:103548001B681A685205054619D4236920461F6866
:10355800FFF7AEFF064618B32069043002F0B0FE4C
:103568002069002D08BF3546043002F0A9FE284620
:10357800F8BD0E4A5A6002F188325A60DAE71A68D2
:1035880022F480621A601A6842F480521A601A683B
:1035980022F480521A601A6842F480621A60D4E7F2
:1035A8003B6943F000433B61DAE700BF230167450D
:1035B80073B5012306460D46144604F073FE50B950
:1035C8000A480B4A00942B46012104F073FC6FF063
:1035D800150002B070BD3CB122462946304602B003
:1035E800BDE87040FFF79ABF2046F2E78CAE0008AE
:1035F800F4D70008F8B5044600691F460D4616467C
:1036080004F023FE236918680369002B1ADB3B4684
:1036180032462946204604F0C3FE23690546204663
:103628001F68FFF745FF064690B12069043002F095
:1036380047FE2069002D08BF3546043002F040FEE1
:103648002846F8BD054B436003F188334360DEE745
:103658003B6943F000433B61EBE700BF230167454B
:10366800F7B51C4617460123224606460D4604F0C8
:1036780019FE50B90B480C4A00942B46012104F05E
:1036880019FC6FF0150003B0F0BD44B123463A466B
:103698002946304603B0BDE8F040FFF7ABBF2046EF
:1036A800F1E700BF8CAE00081FD80008024B0B6082
:1036B80003231360704700BFE8B2000838B50369F8
:1036C80004465860084D284606F053FF40B161682B
:1036D800AB680C311B682846984700EAE07038BD93
:1036E8006FF01200FBE700BFB4AA0008F7B50C465C
:1036F8001146B1F5001F476802691D4624D104F040
:103708000302043292000F23934043EA9403DAB28F
:103718003449023251F82220190C02EA134391FA73
:10372800A1F2B2FA82F2D340BA689A4209D120468D
:10373800FFF730FD2046FFF781FD00212046FFF707
:1037480035FD002003B0F0BDB1F5800F41D026490A
:103758002046FFF75BFD00283ED1B5F1806F34D0DD
:10376800B5F1C06F33D0B5F1007F38D102261F4ABA
:10377800BD6892E803006B4683E803001C48826832
:10378800194612689047C0B904F0030304339B003C
:103798000F229A4042EA9402D3B29B0003F180437D
:1037A80003F59C33110C986820EA124091FAA1F2B3
:1037B800B2FA82F2954005439D6020463146FFF7F4
:1037C800F5FC2046FFF7D4FCBBE70126CFE703262C
:1037D800CDE76FF08500B5E76FF00F00B2E76FF047
:1037E8001500AFE7003801401F86000820AF000829
:1037F800B4AA00082DE9F0471E4F044600EBC106A5
:103808000025B44201D1002014E02068C30600F06E
:103818001F0911D4656845F02005C0F3481AC0F3A4
:1038280044200F2823D857F82080B8F1000F0DD175
:103838006FF01200BDE8F087B9F1100F04D0B9F1AC
:10384800110FEAD16568E8E73025E6E7404606F05B
:1038580090FE0028ECD04B462A460AF00F0140465D
:1038680004F0F0FE002804F10804CADAE2E76FF079
:103878001500DFE7D8B3000843681B6803F114029A
:1038880052E8002F42F0010203F1140040E8002141
:103898000029F3D1134A934213D0A2F54C42934224
:1038A8000FD002F5806293420BD002F580629342FA
:1038B80007D002F58062934203D002F54442934256
:1038C80003D11A6942F040021A6103F10C0252E86E
:1038D800002F42F4807203F10C0040E80021002917
:1038E800F3D170470010014043681B6803F11402CC
:1038F80052E8002F22F0010203F1140040E80021F1
:103908000029F3D1134A934213D0A2F54C429342B3
:103918000FD002F5806293420BD002F58062934289
:1039280007D002F58062934203D002F544429342E5
:1039380003D11A6922F040021A6103F10C0252E81D
:10394800002F22F4807203F10C0040E800210029C6
:10395800F3D1704700100140024A0348012104F0E6
:1039680096BA00BF0ED90008ECAE0008F8B5036996
:103978000C465E6823794168012B34D09A1E554263
:103988005541AD026279022A9CBF354F37F812C003
:10399800A27988BF4FF4005C042A27D0003B18BFE7
:1039A80001231B03E279012A0A680CBF4FF4407710
:1039B8000027A642D1681CD121F4B05129430B43FA
:1039C800D360136923F4405343EA0C03136143683B
:1039D8001A68536923F440733B4353613168BDE867
:1039E800F84004F0C3BF4FF4C065CBE74FF48053F1
:1039F800D8E701F4C0618D421FBFD16821F4C061CE
:103A08002943D160426811680A6902F4405294451A
:103A18001FBF0A6922F4405242EA0C020A61426856
:103A28001168CA6802F4805293421FBFCA6822F420
:103A380080521343CB6043681A68536903F4407398
:103A48009F421FBF536923F440733B43536121686E
:103A58003368994203D004F089FF23683360F8BDC6
:103A680058CC00082DE9F3410469476805463148F8
:103A7800206006F07EFD50B92F4A3048012104F03D
:103A880006FA6FF01204204602B0BDE8F081206803
:103A9800F96883681B6898470446E8B9386A01AA38
:103AA800002104F0E7FD041EEDDB019B00221979DB
:103AB8001868FFF79FFE041EE5DB6E682B69346803
:103AC800D3F80480E36823F40053E360706806F0D9
:103AD80050FD48B91A4AD0E71A4A1848012104F09B
:103AE800D6F9002CCFDBD9E7D6E901018368DB687A
:103AF80003B1984704F10C0353E8003F43F00C036B
:103B080004F10C0141E80032002AF3D1414628466D
:103B1800FFF72CFF337D1BB1636943F00803636132
:103B2800E36843F40053E3607B6A2846984700241F
:103B3800A9E700BFB4AA00083CD90008ECAE000809
:103B48007BD900085BD900082DE9F04143681D685E
:103B58000369D3F804800B790C46012B4979A679BF
:103B680037D1022950D9042E4BD04FF480574FF447
:103B7800C06203238B4244D1002F7DD0002A14BF9A
:103B880003220422B2423CD1E37983B1012B38D11C
:103B98003C4B9D420BD0A3F54C439D4207D003F507
:103BA80080639D4203D003F54C439D4229D1EB68C5
:103BB80023F40053EB602146FFF7D8FEEB6843F48B
:103BC8000053EB6094E8030088E803000020BDE898
:103BD800F081022B08D1022921D9042E11D04FF4EB
:103BE80080624FF48057C4E702290A461FD9042E81
:103BF80004D133B94FF480571A46BAE763BB032997
:103C0800C0D06FF08500E2E71F4A042E32F811C0D9
:103C1800F7D04FF4C062033B012B10D8F1E71A4AE2
:103C2800042E32F811C0ECD04FF48062F3E7164A44
:103C3800042E32F811C016D1002BE2D11A464FF4E7
:103C48008057BCF5805F13D0BCF5405F12D0BCF143
:103C5800000F8ED101238DE7033B012BD1D9002220
:103C6800BFE70022D7E7002BFBD11A461F46E8E73B
:103C780000237FE702237DE7002A14BF02220322E4
:103C880080E700BF0010014058CC000810B54FF085
:103C9800E0230F499C691A6908689B690D4902F479
:103CA800803234B993B903464AB90A681044C01A35
:103CB80010BD002B08BF03460AB9A342F5D90A680C
:103CC80002440A604FF0E0221269EEE70446F3E787
:103CD800940A0020900A00200A4B102283F823201F
:103CE800094B44F2A0121A60084B002018604FF0EC
:103CF800E02344F29F125A6198611A6942F0070260
:103D08001A61704700ED00E0940A0020900A002034
:103D180010B5FFF7BBFF104B1049D3E90042086804
:103D2800001942F10002C3E900020D4A00230B60AA
:103D3800D2E9004144F2A013001BB0FBF3F0434367
:103D48001B1941F10001C2E9003102F0A5FFBDE8ED
:103D58001040FEF7D7BD00BFB8060020900A00202B
:103D6800B00600202DE9F041DFF8DC8099B1421C53
:103D78000BD14FF0E022136923F0010313614FF0D8
:103D88007F43C8F80030BDE8F081D8F8006001280A
:103D980007DC00270BE0431CD8F80060F7D140F29D
:103DA800E53040F2E6339842A8BF1846471EEFF3C5
:103DB8001185102383F31288BFF36F8FFFF766FF17
:103DC800224C4FF0E0239969D4E90023801843F18D
:103DD8000003C4E900031E4B00221A601D4B1A6839
:103DE800831A2ED444F2A01C0CFB073303F583433B
:103DF8001F33B3FBFCF7131A0CFB073340F21A42CC
:103E0800934238BF1346144A934228BF13464FF0D3
:103E1800E022C8F80030013B9069536100239361A8
:103E28008142A1EB0003D4E9001238BF9B195B184B
:103E380042F10002C4E9003285F31188BFF36F8FA5
:103E4800A1E740F21A43E2E7940A0020B8060020EE
:103E5800900A0020B00600202094FF0038B5EFF348
:103E68001185102383F31288BFF36F8F084B1C68EA
:103E7800084B1B68E41AFFF709FF85F31188BFF3A5
:103E88006F8F44F2A0132044B0FBF3F038BD00BF9D
:103E9800B8060020B006002038B5EFF311851023CE
:103EA80083F31288BFF36F8F044B1C68FFF7EEFE95
:103EB80085F31188BFF36F8F204438BDB806002002
:103EC80008B513498B6803F00C03042B1CD0082B8E
:103ED8001CD14A684B68496813F4800314BF0D4825
:103EE8000D48C1F3881118BF002302F03F02A1FB5F
:103EF8000001FCF739FD064B5B68C3F3014301334E
:103F08005B00B0FBF3F008BD0248FCE70248FAE7A3
:103F18000038024000127A000024F40000285ED025
:103F2800304A136813F4804338D02F4B984215D980
:103F380013685B0449D505232C490A6822F0070257
:103F48001A430A600A6802F0070293421CBF0A6813
:103F580002F00702981A18BF01207047244B9842B4
:103F680004D91368580436D50423E5E7214B984251
:103F780004D91368590430D50323DDE71E4B984252
:103F880007D81E4B984213681DD95A041FD5012320
:103F9800D2E713685B041CD50223CDE7126812F43C
:103FA8008042C9D11249884215D81249884214D88A
:103FB80011498842F0D811498842BDD9012A1346CF
:103FC80038BF0123B8E70023B6E70522F6E7012248
:103FD800F4E70222F2E70422F0E70322EEE70120E9
:103FE800704700BF0070004080D1F008003C0240DC
:103FF800000E2707804A5D050087930380C3C90127
:10400800044B1B68584043085B4240421843C017A2
:10401800704700BF980A002010B50B4C226823682F
:104028004240594081EA0200C00FFFF7E9FF2368C8
:10403800521A434022EA030208401043BDE81040E8
:10404800C00FFFF7DDBF00BF980A0020F8B50D4686
:10405800014628681746FFF7DFFF084B1E68C14373
:104068000124BC4202D346EA0100F8BD55F82400F9
:10407800FFF7C6FF01340643F3E700BF980A0020A4
:104088002DE9F0470F4B88461E6819681D680746DA
:10409800541E631C02D13046BDE8F08758F824A0AE
:1040A80057F8249050464946FFF7B6FF5146054356
:1040B8004846FFF7B1FF20EA05031E430543013CCC
:1040C800E7E700BF980A00208842F0B504D0094FFE
:1040D80004380025AA4200D1F0BD3E6850F8044FCC
:1040E8005E4024EA060451F825601E40344304600B
:1040F8000135EFE7980A00202DE9F04F85B0DFF889
:10410800889003911C46064621461046D9F800308F
:10411800D9F8003004F0FCFCC51D272D4FEAD50363
:1041280025F00705904602938CBF4FF01E0A4FF00A
:10413800FA0A2D1A0F9B0093029A0E9B21463046CD
:1041480004F0B1FE0746C0B92A462146304604F0BD
:1041580026FDBAF1010A14D0224631460398FFF72A
:1041680075FF2246834641463046FFF789FFD9F856
:1041780000200BEA00039A42DCD0384605B0BDE8BF
:10418800F08F6FF00D07F8E7980A0020044B1B68C2
:10419800584043085B4240421843C017704700BF6D
:1041A800980A0020054B1B68013143400132084042
:1041B80022EA03020243501E00B27047980A002008
:1041C8002DE9F04F99B083460F4618460021164650
:1041D800039305F07FF8002800F08981784B149349
:1041E8000024012515AB039913933046CDE90B45FF
:1041F800CDE90D45CDE90F45CDE9114504F0F3FFB3
:10420800A04228DABBF1000F05D1E7B90024204607
:1042180019B0BDE8F08F2146584604F065FF044602
:104228000028F2D00BA804F083FE0DA804F080FE4D
:104238000FA804F07DFE11A804F07AFE0C2115A841
:1042480001F01AF8E3E73146384604F018FF04464F
:104258000028E7D1DAE731460BA804F010FF04463E
:104268000028DFD103990DA804F009FF04460028AF
:10427800D8D1F188ADF8385002310FA8ADF83050D8
:1042880004F064FE04460028CCD101460FA804F0CF
:104298002BFF04460028C5D1F18811A8023104F08B
:1042A80055FE04460028BDD10DA804F05CFF00F0BF
:1042B8001F001F2873D0C0F11F0319460BA80193D4
:1042C80004F06BFF04460028ACD101990DA804F056
:1042D80064FF04460028A5D1BDF83250BDF83A80E5
:1042E800A5EB080A4FEA4A1949460DA804F055FFFC
:1042F8000446002896D14FEA8A0A0DA90BA804F0B3
:10430800A1FF00284DDA49460DA804F063FF0446D2
:10431800002887D108F1FF3305939B0005F1FF3A88
:10432800069305F1804508F18043023B013D9B005F
:10433800A5EB08050893AB000293059B9A4541D865
:10434800BBF1000F0DD00FA9584604F098FE0028C5
:1043580040F0C980039AB388928813FB02F3ABF844
:104368000430002F3FF45EAF01990BA804F032FF30
:10437800002840F0B880B388ADF830300BA9384633
:1043880004F07DFE0146002840F0AF80384604F076
:10439800A1FF00287FF446AF0123BB8042E70194C8
:1043A8009AE70F9A52F80A300BA9013342F80A30FB
:1043B80008460DAA05F074F8044600289DD031E798
:1043C800010003000D9B069A04931344DDF82C901A
:1043D8000793049B59F82A109A580F9D4FEA8A08A8
:1043E800A8F104030993029B91421D4476D2A8F1D7
:1043F8000400002359F80000FCF7B6FA002914BF9E
:104408004FF0FF330346BAF1010F2B6016BF09EBDB
:104418000803002353F8083C1593A8F1040359F83E
:104428000330169359F8083017932B68DDF810807D
:1044380001332B60089B98442B68013B2B600021BB
:1044480011A804F051FE00284DD1059B002B48D03F
:10445800D8F80020119B1A60079A12685A6011A9AF
:104468002A68084605F0A5F800283CD113A911A828
:1044780004F0E8FE0028DFDC2A680DA911A805F081
:1044880098F880BB029B4FEAC308414611A804F084
:1044980084FE40BB0BA9084611AA05F001F80146A5
:1044A80018BB0BA804F016FF002812DA0DA911A8F2
:1044B80004F0E5FDB8B9414611A804F06EFE90B9C4
:1044C8000BA911AA084604F0E8FF60B92B68013B64
:1044D8002B60029B0AF1FF3A043B2DE74FF0FF33B4
:1044E80091E7059AB6E704469CE60C469AE66FF013
:1044F8000B048CE62DE9F04792B005460CA89846C7
:104508000C469246DDE91A6905F051FD04A804F04D
:104518000AFD06A804F007FD08A804F004FD0AA88F
:1045280004F001FD6B6B002B00F084800121304604
:1045380004F0D0FE002813DB05F134073946304675
:1045480004F080FE00280BDA0121484604F0C2FE80
:10455800002805DB3946484604F074FE002813DBC2
:10456800354C0CA805F060FD04A804F0E1FC06A891
:1045780004F0DEFC08A804F0DBFC0AA804F0D8FC70
:10458800204612B0BDE8F0872246534604A92846C3
:1045980005F05FFA04460028E3D13A46494606A8E2
:1045A80005F004F904460028DBD106AA04A908A8E6
:1045B80004F092FF04460028D3D108A93A460846D9
:1045C80005F028F804460028CBD106AA31460AA8E7
:1045D80004F082FF04460028C3D10DF128093A46A9
:1045E8004946484605F016F804460028B9D1CDE9F1
:1045F8000180CDF8009005F11C0308AA0CA92846F3
:1046080000F0FAFD04460028ABD10CA805F07BFDAC
:104618000028A5D10CA93A46084604F0FBFF044639
:1046280000289ED131460CA804F00CFE0446002850
:1046380097D095E7014CA3E700B2FFFF80B0FFFFDA
:104648002DE9F0478AB0924606AF129A0493804645
:1046580008AE38469D18894604F065FC304604F0DB
:1046680062FC302305AA294604A804F02AFA58B1A6
:10467800A0F59F44384604F05BFC304604F058FC33
:1046880020460AB0BDE8F087DDE9043213449D42B4
:1046980021D13A46294604A804F027FA0028E7D190
:1046A8003246294604A804F020FA0028E0D1139BDA
:1046B8000097CDE90163524608F168034946404630
:1046C800FFF718FF04460028D4D1049A034BAA42E6
:1046D80018BF1C46CEE7024CCCE700BF00B4FFFF72
:1046E8001AB0FFFF38B504460D4605F0A1FC204678
:1046F80005F06BFC032D257005D0042D28D0002370
:104708002348237023E0234B234AA3606260A361FC
:10471800224AA3632362A362214B62616362214A36
:1047280062634FF00113204A2363204BE362E26186
:10473800201D04F018FDE06304F1340004F013FDBB
:104748001B4B2064012200206264A365E06538BD2C
:10475800184B194AA3606260A361184AA3632362D5
:10476800A362174B62616362164A62634FF00113DA
:10477800154A23630D4BE362E261201D04F0F3FC4C
:10478800E06304F1340004F0EEFC104BD9E700BFFD
:1047980080B1FFFF0100080008CB0008E8CA000844
:1047A800A8CA000888CA0008C8CA000828CB000898
:1047B80008C5000801000C00D8C40008A8C40008F7
:1047C80048C4000818C4000878C4000818B50008D0
:1047D80070B50C460646114620461A4604F07CFE83
:1047E8000546A0B9B36C33B9321D21462046BDE851
:1047F800704004F00FBFB4F90430002B09DB2046E9
:1048080004F0B1FCF36BB0EB430F09D9184D2846FF
:1048180070BD0146204604F05DFD0028EFD0F5E7A5
:10482800B36C2046984705460028F0D10436B4F901
:104838000430002B04DA0021204604F04BFD68B94F
:104848003146204604F0FEFC0028E0DB32462146D3
:10485800204604F0A0FD0028F2D006E032462146AA
:10486800204604F01AFE0028E1D00546CFE700BF35
:1048780080B0FFFF2DE9F04F012A85B080460E4633
:10488800914605D8096805B0BDE8F04F05F035B97F
:104898000821104600F0FCFC0746002800F0AA801A
:1048A80002A804F040FB4946384605F00EF9316885
:1048B8003846103104F0E3FB0446002846D1B246DE
:1048C80007F108014FEAC90507EBC90B5AF8043F7D
:1048D80001911033A1F108024046FFF779FF044621
:1048E800A0BB019908318B45F0D1A5F108013944E5
:1048F80008F10402084604F059FF044630BB103D95
:1049080009F1FF3A06EB89063D44BAF1000F2BD0B6
:1049180005F1080B2B465A4602A94046FFF758FFF7
:10492800044698B956F8043C5A461033294640467E
:10493800FFF74EFF044648B956F8042C083202AB7C
:1049480011464046FFF744FF044690B102A804F020
:10495800EFFA3846494605F0C4F8384600F09EFCA0
:10496800204605B0BDE8F08F394602A804F087FB61
:10497800E0E702AB1A4619464046FFF729FF04460E
:104988000028E3D156F8042C02AB11464046FFF745
:104998001FFF04460028D9D156F8042C083202AB70
:1049A80011464046FFF714FF04460028CED1B8F858
:1049B8000A1056F8040C04F031FB04460028C5D14F
:1049C80056F8040CB8F80A10083004F027FB04461F
:1049D8000028BBD156F8040D0121103004F084FBE7
:1049E80004460028B2D1083DBAF1000FAED00AF152
:1049F800FF3A8AE7004CB3E780B2FFFFF0B585B015
:104A080014461F46054602A80E4604F08CFA2346B3
:104A180000972A1D022102A804F0AAFE044648BBFA
:104A280006F1100202AB11462846FFF7D1FE0446F4
:104A380000BB06F1080702AB3A4639462846FFF79D
:104A4800C7FE0446B0B902AB1A4619462846FFF716
:104A5800BFFE044670B902AB324631462846FFF71E
:104A6800B7FE044630B902AB3A4639462846FFF746
:104A7800AFFE044602A804F05BFA034814F10E0FD7
:104A880018BF204605B0F0BD00B3FFFF2DE9F14F78
:104A98009A461B690A9D04460E4691461BB9724800
:104AA80001B0BDE8F08F02F110070021384604F08C
:104AB80011FC30B95146304601B0BDE8F04F05F061
:104AC800F8BA0AF110080021404604F003FC08B9BE
:104AD8004946F0E70121404604F0FCFB0028DED1FE
:104AE8003B463A4629462046FFF772FE0028D7D1B2
:104AF80005F108083B462A4641462046FFF768FE6E
:104B08000028CDD153462A4629462046FFF760FEA5
:104B18000028C5D10AF10803424641462046FFF75E
:104B280057FE0028BCD14B462A462946204605F0A8
:104B380086F80028B4D109F1080B5B464246414685
:104B4800204605F07CF80028AAD10021284604F068
:104B5800C1FB014690B9404604F0BCFB40B92B4666
:104B68004A463146204601B0BDE8F04F05F010B97D
:104B7800304601B0BDE8F04F05F0B1BA2B463A46D1
:104B880006F110012046FFF723FE002888D105F121
:104B980010072B462A4639462046FFF719FE0028FB
:104BA8007FF47EAF05F1180A2B463A465146204657
:104BB800FFF70EFE00287FF473AF4B463A4639469E
:104BC8002046FFF705FE00287FF46AAF39462846DD
:104BD80004F055FA00287FF463AF2946204605F013
:104BE8008AF800287FF45CAF4346424631462046A7
:104BF800FFF7EEFD00287FF453AF2B4632463146CF
:104C0800204605F01CF800287FF44AAF5346324688
:104C18003146204605F013F800287FF441AF3346AB
:104C28003A463946204605F00AF800287FF438AF9E
:104C380043463A4639462046FFF7CAFD00287FF426
:104C48002FAF5B46524651462046FFF7C1FD00286C
:104C58007FF426AF53463A4606F10801204601B0D4
:104C6800BDE8F04F04F0EBBF80B0FFFFF0B50D4694
:104C780085B00646012105F1100004F02BFB04461F
:104C880050B9304605F08AF9012842D12146284614
:104C980004F020FB002801DA1F4C37E005F1080773
:104CA8002146384604F016FB0028F5DB341D214662
:104CB800284604F0C7FA0028EEDA2146384604F000
:104CC800C1FA0028E8DA684604F02DF902A804F0D1
:104CD8002AF93B463A4669463046FFF779FD0446CD
:104CE80070B92A4602A9304605F014F8044638B9C6
:104CF80002A9684604F0A6FA074B041E18BF1C4612
:104D0800684604F015F902A804F012F9204605B027
:104D1800F0BD024CFAE700BF80B3FFFF80B0FFFF91
:104D280038B5054605F03AF901280C4601460DD17B
:104D3800204604F0CFFA002806DB05F134012046AE
:104D480004F080FA002803DB024838BD0248FCE77B
:104D58000020FAE780B3FFFF80B0FFFF2DE9F04F96
:104D6800CBB005460391114607929A46FFF7D8FF44
:104D78000446002840F0348251462846FFF776FF63
:104D88000446002840F02C82284605F007F901283F
:104D9800814640F02B8205F124010AF1080004F055
:104DA80051FA0690002853D02E6CB6F5C07FC0F09B
:104DB80093800336B60806944FF008080423CDE91B
:104DC80004834FF0030B0498182100F061FA07469A
:104DD800002800F009820024182303FB0470013422
:104DE80005F0E5F8E2B242454FF01803F5D31C226E
:104DF800002111A805F071FD042119A804F065FE31
:104E08005146384605F055F90446E0B906FB0BFB58
:104E18008246DA4562D111AB089318460022012375
:104E280003EB43015B00DBB207EBC101434540F8EC
:104E3800041B02F10102F3D311A92846FFF71AFD5A
:104E4800044600287CD0042119A804F04AFE5DE03D
:104E580005F11C01504604F0F5F92B6C1E4640BBC9
:104E6800B3F5C07FAA6D2AD39AB1EB6D8BB34C46CC
:104E7800042303F1FF3B012202FA0BF20492013EE4
:104E88001E449DF810800593B6FBF3F654B90694BA
:104E980099E703339E084FF008080423CDE90483FB
:104EA8004FF0030BAF6D002F40F09780012306935E
:104EB80089E7B3F5C07F0FD303339E087CE752B16F
:104EC800EB6D43B9042301330124B34228BF022305
:104ED800CFE70523F7E74C460423F6E70123BAFB9F
:104EE800F6F18B40DBB2182206FB11A102FB03721C
:104EF800A1B119AB1146284604F04AFF0446E0B1B7
:104F0800042119A804F0EDFD002C61D0AB6D9F427F
:104F180040F05681039805F087F861E103F0FE013F
:104F280001EB5301104607EBC101089205F0C1F8E7
:104F3800089A04460028DCD0E2E70AF1010A68E78B
:104F48000FFA89FA0AEB4A0ACB4607EBCA03DA4694
:104F58000BF1FF3BBAF1000F2AD14FEA49095FFA7A
:104F680089F9C145ECD3049B182107F1180201FB0C
:104F78000371089B43F8042B18328A420893F8D12E
:104F8800049B11A95A1E2846FFF774FC0446002802
:104F98007FF459AF07F1100948460AF1010A03F0F6
:104FA800C7FF5FFA8AF2424509F11809F4D3A7E767
:104FB800182202FB0BF119AA009228467A18194404
:104FC8000993FFF763FD099B04460028BFD097E7C4
:104FD800069B13B1049BAF65EB6511A803F0A3FF13
:104FE80005F1340A0BA803F09EFF0021504604F097
:104FF80097F8012840F08C800021079804F090F879
:105008000799814611A804F03AF8044630B10BA874
:1050180003F08EFF11A803F08BFF77E7079A51463C
:105028000BA804F03DFA04460028F0D1B9FA89F932
:105038004FEA59194A460BA911A803F0ABFF0446D9
:105048000028E4D10146721C19A805F046FC0DF1B0
:10505800640AD346B44227D100220124B4423BD982
:105068000BA80DF1440A03F063FF504603F060FFFC
:105078000BA804F09CFF0421504604F026FD06F519
:1050880094736B44039913F8C43C00933A4643461F
:10509800284604F09AFD044600283BD00BA804F0EB
:1050A8001CFE04215046D0E62146002311A8069391
:1050B800049104F035F8069B9BF800200499984069
:1050C80002438BF80020059A013393423144EDD115
:1050D80001340BF1010BBDE79AF801009AF8003092
:1050E80080EA020C6FEA0C0101F0010113FB01F3E5
:1050F800104003EA0C0283EA0C030AF8013F1AF88D
:10510800013C43EAC11302430AF8013C0134A5E714
:10511800374CFBE6549B43B1DDE9542303992846F9
:10512800FFF76CFC04460028B8D10DF1640B0EB9EA
:1051380034461EE0039A53461146284604F028FEDA
:10514800013E0446A8B916F80B3000933A46434688
:105158000BA9284604F039FD044650B9039ACDF846
:1051680000A00BAB11462846FFF790FC0446002828
:10517800DDD00BA804F0B1FD042111A804F0B1FCA6
:10518800002C7FF4C3AE03994A46284604F0F9FC84
:10519800044600287FF4BAAE549B4BB1DDE9542392
:1051A80003992846FFF72AFC044600287FF4AEAE90
:1051B8000399284604F0A1FCAB6D9F4204460CD02D
:1051C8000025182606FB0570013504F02DFFEBB20B
:1051D8004345F7D3384600F061F8002C7FF49AAEC7
:1051E80020464BB0BDE8F08F024C93E6004CF7E741
:1051F80080B0FFFF80B2FFFF2DE9F04190B0054677
:10520800984604F0CBFE01280E46144630D102A879
:1052180008AF04F0CCFE0421384604F056FC2246C0
:10522800434602A9284604F077FF0446A8B9DDE9F9
:1052380016233146284604F06FFF044668B90097E4
:10524800334602AA31462846FFF720FC044620B917
:105258003146284604F051FC04463846042104F03F
:1052680040FC02A804F039FD204610B0BDE8F081EA
:10527800004CF9E780B1FFFF10B50A46044619B1A2
:10528800024B00211B68984710BD00BF800000201A
:10529800014B1B68184700BF88000020014B1B68A2
:1052A800184700BF8400002003460846C1B9C3E977
:1052B80010110D4A0D49DFF838C0C3E912120D4A22
:1052C8000D49C3E914C20D4AC3E916120C4A1A66FD
:1052D80002F17452A2F52302A2F692425A6670476E
:1052E8006FF07300704700BF85AE67BB67E6096A59
:1052F80072F36E3C3AF54FA57F520E518C68059BB0
:10530800ABD9831F2DE9F04FCFB00446039100F1CC
:10531800480346AD00F16806186859682A4603C272
:105328000833B3421546F7D1DDE94883DDE94B96EA
:10533800DDE946150193DDF834B13E4B4A980293F6
:1053480004AA4FF0000CBCF10F0F5BD8039B53F875
:105358002C301BBA4FEAF02E86EA0907DDF808A0C0
:1053680093608EEAB01E07408EEA706E77407744ED
:105378005AF804EBCDF808A077443B4445EA010EFF
:105388004FEA713787EAB1070EEA080E05EA010A03
:105398004EEA0A0E87EAB15777440CF1010CDDF8A2
:1053A80004E0CDF804805B44BCF1400F9E4402F158
:1053B80004023B44B3461ED1CDE94C96CDE94AE000
:1053C800CDE94858CDE94631CDE9043745A904F17E
:1053D8004403643453F8042F51F8040FA3420244E1
:1053E8001A60F7D104A84FF49471FFF745FF002025
:1053F8004FB0BDE8F08FA8464E460D468146194687
:105408007046A0E7136852F834AC52F8387C4FEA7B
:10541800F34E8EEA734E8EEA932E52F8143C3B44B8
:105428004FEABA4787EAFA17734487EADA073B4430
:1054380090E700BF2CCB00082DE9F04FADF5437D78
:1054480002460D900B461032B2AD00F150061068BE
:1054580051682C4603C40832B2422546F7D1194692
:1054680001F1800410AB48680A6800BA43F8080FD5
:10547800083112BA8C425A60F5D112A81025D0E929
:105488001C47E30CFA0C4FEAC70E4FEAC4084EEA71
:10549800547E43EA473342EA443248EA5778A4093B
:1054A800844682EA0E0244EA876483EA080363407A
:1054B80082EA9712DCE91247DCE900ECD0E902162F
:1054C80014EB0E0447EB0C071B1942EB07024C08C0
:1054D8004FEA112E77084FEA162C47EAC1774CEAB3
:1054E800016C44EAC6744EEA066EC90984EA0E04E1
:1054F80041EA4661614087EA0C075B1887EAD614DF
:1055080005F1010542EB04020830502DC0E91E32B6
:10551800B5D1BE9B0693BF9B0793BC9B0893BD9BCD
:105528000993B29B0193B39B0293B49B0393DDE968
:10553800C0ABB59B0493DDE9BA20DDE9B689B89B19
:10554800DDF8E4C2DFF808E005930EAB02E000BF27
:1055580030AF0008940B44EA8047840B44EA824643
:10556800840C44EA8234950C45EA80356640C405CB
:1055780044EA52246F40D50545EA50256640D3E9F0
:1055880004146F40DEF800506D18DEF8041041EB8B
:1055980004047D190699099F46EB0404089E4E40B1
:1055A80007994F40069916404E40079907404F40CB
:1055B800AD19059944EB070415EB0A054BEB0404F8
:1055C8006918059144EB0C010A910199DDF804C0B2
:1055D800DDF808A00F0F029947EA01170E0F01998D
:1055E80046EA01160299890741EA9C014FEA8C7C38
:1055F8004CEA9A0C4E40019987EA0C074FEA4A6C2C
:105608004CEAD11C490641EADA117940491986EA7F
:105618000C0644EB0606039D019C049FDDF80CC0B4
:105628002C4355463D43019F07EA0C0C5746DDF8CD
:1056380010A004EA080407EA0A0744EA0C0405EA89
:10564800090511EB040A45EA070546EB050BDEE9F7
:105658000216D3E906544919069D46EB0404491974
:10566800079D45EB0404089D059F82EA0506099DF0
:105678003E400A9F45403D40089F7E40099F89194A
:1056880085EA070544EB0504059D0A9E0691AD0BC6
:1056980045EA8645B70B059E059947EA86474FEACE
:1056A800964C0A9E4CEA863CB60C46EA8136774010
:1056B8000A9EF60585EA0C0546EA51264FEAC15CC2
:1056C8000A994CEA512C069985EA0C054D1986EA87
:1056D800070644EB060615EB0801069146EB09019F
:1056E80007914FEA1B744FEA8B7141EA9A014FEA1E
:1056F8001A7744EA0A144FEA8A7C4CEA9B0C47EA78
:105708000B174C404FEA4A6187EA0C0741EADB1164
:1057180079404FEA4B6C4D194CEADA1C0199039F0A
:1057280084EA0C0446EB04044AEA0101029E39406B
:10573800049F4BEA06063E40019F0AEA070C029FB7
:1057480041EA0C010BEA070715EB010846EA0706D0
:1057580044EB0609D3E90856DEE904144919089D03
:10576800069F44EB06044919099D45EB0404059D71
:1057780082EA05060A9D3E40079F454056403D4047
:10578800891985EA000544EB0504069D069E0891E3
:10579800AD0B45EA8745BF0B47EA86474FEA964C6B
:1057A800079E06994CEA863CB60C46EA8136774055
:1057B800079EF60585EA0C0546EA51264FEAC15CC4
:1057C80007994CEA512C089985EA0C054D1903995B
:1057D80086EA070644EB060649190891049941EB45
:1057E800060109914FEA19744FEA897141EA980153
:1057F8004FEA187744EA08144FEA887C4CEA990C77
:1058080047EA09174C404FEA486187EA0C0741EA22
:10581800D91179404FEA496C019F4D194CEAD81CBF
:105828004AEA080184EA0C0401EA0701029F46EBF0
:1058380004040AEA080C4BEA09063E4041EA0C0156
:105848000BEA0907691846EA0706039144EB0601C3
:105858000491D3E90A54DEE90616491946EB040413
:10586800891840EB0404DDE90520079D50400A9A99
:105878006A40089D2840099D2A40059D68400A9D68
:10588800091882EA050244EB0204089A0998920B67
:1058980042EA8042850B089845EA8045860C0998BB
:1058A800089F46EA8036800C40EA873045400998D0
:1058B800C005724040EA5720FE05099F46EA572670
:1058C80072408A180199039E049F80EA050044EB00
:1058D800000089180B91029941EB00010C91039982
:1058E8000D0F049945EA01150C0F039944EA0114B8
:1058F8000499890741EA9601B60746EA97064C409B
:10590800039975407E0646EAD116490641EAD71141
:1059180069408A180399039D84EA060448EA01014C
:1059280040EB040408EA050649EA070001EA0A010F
:1059380009EA0705314300EA0B00521840EA05005E
:10594800019244EB00020292D3E90C01DEE908243B
:1059580012180598099D44EB010112180A98089C31
:1059680040EB010106984440079868400B9D2C4085
:105978000C9D2840069D6C40079D0B9F121980EADC
:10598800050041EB00010B98850B0C9845EA804512
:10599800840B0B9844EA8044860C0C9846EA8036BF
:1059A800800C40EA873044400C987540C60546EAAA
:1059B8005726F8050C9F40EA57206840101884EADB
:1059C8000604019A019D029E41EB04040299120FFC
:1059D80042EA01124FEA117C01994CEA011C029932
:1059E800890741EA9501AD0745EA96058CEA010C5D
:1059F80001996A40750645EAD115490641EAD6116A
:105A08001AEB000A81EA02014BEB040B039A09180E
:105A180001988CEA050C44EB0C0C019D42EA000449
:105A28000398049A2840049D04EA08043243354048
:105A380002EA09022043091842EA05024CEB020C6B
:105A4800D3E90E40DEE90A2505910699121945EBBE
:105A58000000521807990B9C41EB0000089981EA55
:105A68000405099981EA0704089905EA0A054D40E1
:105A7800099904EA0B044C40521940EB04004FEA20
:105A88009B454FEA9B3445EA8A354FEA9A3644EA01
:105A98008A444FEA9A4747EA8B376C4046EA8B4676
:105AA8004FEACA557E4045EA5B254FEACB57754019
:105AB80047EA5A27521984EA070440EB040018EB16
:105AC8000201069149EB0001079105994FEA1C75FF
